{
  "transactions": [
    {
      "hash": "0xd065530f18ce424532e184184cf658a01c380c3aef77ff2f97b50a8973ab2910",
      "transactionType": "CALL",
      "contractName": null,
      "contractAddress": "0x3744573093a9c0855584eca5631f8bf0e43d289d",
      "function": "setURI(uint256,string)",
      "arguments": [
        "1",
        "\"ipfs://QmUrjpkiMGJPXnzoAwDXa5r6x7uPoeNaqxPoFta2dQfyN8\""
      ],
      "transaction": {
        "from": "0x4143ef8556b9e2a23cc2b2f91f8eaed413a0b260",
        "to": "0x3744573093a9c0855584eca5631f8bf0e43d289d",
        "gas": "0x1f718",
        "value": "0x0",
        "input": "0x862440e2000000000000000000000000000000000000000000000000000000000000000100000000000000000000000000000000000000000000000000000000000000400000000000000000000000000000000000000000000000000000000000000035697066733a2f2f516d55726a706b694d474a50586e7a6f4177445861357236783775506f654e617178506f46746132645166794e380000000000000000000000",
        "nonce": "0xf",
        "chainId": "0x1"
      },
      "additionalContracts": [],
      "isFixedGasLimit": false
    },
    {
      "hash": "0x1b69be42e7303867bdda7d4c50a84dd3344b192974e30856c0f0f12073bb7047",
      "transactionType": "CALL",
      "contractName": null,
      "contractAddress": "0x3744573093a9c0855584eca5631f8bf0e43d289d",
      "function": "airdrop(uint256,address[])",
      "arguments": [
        "1",
        "[0x00c432Be312c7326b983C19760d07BC76B9bc68F, 0x016F40BE4FC1B8456A74171fAE3265d1431b3bdF, 0x04E9f5bD176De05511618ab63aEdeB6AE0f0d8e4, 0x074d7c7f52039Ea5dC822f2Db1d03010C9b27Ee9, 0x080B62ceAEDD748329222E3BB823Bf75cfafAa89, 0x0BF61023640B5fFa269EBaBa895cc3662793A4c9, 0x0C93f7e24370a79969d139bD84Cb66dBcE161f64, 0x111111176b0b13FFc31D387D08726772a0492948, 0x178D9514D67a427711c75263E9c910F901F8B8a9, 0x19619FA171688224FEf1b0600629b9b29ec28842, 0x272c8d1EbC05283653d2cA700d20EE9a628179C9, 0x2780671CE8477362Ca309D75Ba8DF47d11F55B59, 0x2add2aE303Ec567C734762F12B9865dC898034Cd, 0x2e8834f8417A3BF2fE9949Eb04Ad6a1bE19652f2, 0x3329219a9E9A64c564a959dEaA013F47B3947ccB, 0x33cFd90F164B4571BA45EbF283B427d33dd142da, 0x35Bd369fE668588Bd299b6d8068C41Bfce0C17dF, 0x3dEF5Ce90b664A7B110b73b4F0ef00c8b4822824, 0x42DAaCea431993D938bfEB85EB73e3537C498A56, 0x43E730DdeA1192d1B455f38EB0f43c61Ac4f8f26, 0x467cdA3BFC2474FE04469D334FB6d0012b5a2499, 0x5dcD3Db7Be7aECEE7110805a3877FdA4A02C4CDF, 0x5F39b0C2F940c1C2A2f9535d30F8998c6d3C0a30, 0x64000EF1EAaF7d175A0C9027d131f613f97f4020, 0x64e5bf117B65943c37e7Bd1B81269B53De8bcD26, 0x6A75aC02b0A2F8e016FfDa57611540022e5f1E6D, 0x6A92B9330849Ec54f8b2Cb0876a42cfFf4993eFa, 0x6b8D127d980C5B76a8404A9d74aC3B932Bc1246f, 0x7131f5cD2e0a4EF3A38169e7bf5851459dbAd20b, 0x72fdDd31d88B262706D0E76f9C4EFd898fcd418F, 0x766D5C405A4Cc9DE51Aa694ffFe922bcCF31C46f, 0x7C9Ea6Fc3Ce275a36188b3f9e58775Bac1442Cb6, 0x807a9fA3CEDeC27CF5BdF4BD093fC2A92fc7be79, 0x858DFe1Dbea506c2FD4eC706536B0c61b58046EA, 0x8B24b1686832757e2f6d640e11e88e7f0064594a, 0x8Fda37Be82706d083076d92838a1Db49795Bab4A, 0x906DF4Bf7b99F1aaFa5C9ACFa56cB5685D6C8780, 0x91430A1900bAF381161d81428Fbd879C1c8f6AF8, 0x928153c752Df49146eaadC7497658eB45108A155, 0x9a93aE4F408a1e7D178650ca9f7Ab2135c512EDA, 0x9F48749e0B81B107505dC3d4e11e755bB1fee7b7, 0xA258C243FA3BA5E230a57F47704C3B9DF1BC62A0, 0xA4b6Aa67Ebd7470048ca8fa183E1085cAb503B83, 0xa63967e4E87844972162d6b6897f4405f9903Ff2, 0xa74fc66E75f883Ee8e60E287335436ca8E6a303C, 0xad65Ae472e2C70e26c80c7a45714Dd527Bc59BB6, 0xB05DEc2370A17478e726452Bbfcd093F64F5B900, 0xB7646B1F9D1601fA769B5DbFfA914CfA5714cb91, 0xb9Fe36cac4174009dbcD11aC98db0d21c70F55cc, 0xbbF0a740EaA47020C67F7fE7032e687eE5c5Eb7f, 0xBC9F696DB4bb19ED0c1C4B25D092fdf70d978A76, 0xbd6EBC277890dbf41283427f64B568906d5A96ec, 0xBfe9277C0A337D7689c1321C39915debCda8F0C8, 0xCE020E4bcA3a181caCD771a4750E03F384779313, 0xcf0b56DfEFA3e0051A1772Fc585B076a06487C53, 0xd1EfDD037566b0c75cEbACe9150D26EA0153FAa9, 0xd55dA9119090a5ce1C7c99Fc2e868b2e3bfED096, 0xD9D9AC409F3641ACB2bfbe5563Aec5263aD06537, 0xdF4b06eE39d048C3FC47b685173053dD90A65319, 0xe26541380a96dB028Bb95FE9CB923E299a000A5D, 0xe519e5EB81F92bF19EcFc7e5d9c6418CD8c2E0B9, 0xEA6cE1d62Bc1Ca179B573aab956FE8B30d8bC0fF]"
      ],
      "transaction": {
        "from": "0x4143ef8556b9e2a23cc2b2f91f8eaed413a0b260",
        "to": "0x3744573093a9c0855584eca5631f8bf0e43d289d",
        "gas": "0x228571",
        "value": "0x0",
        "input": "0xbdf7a8e600000000000000000000000000000000000000000000000000000000000000010000000000000000000000000000000000000000000000000000000000000040000000000000000000000000000000000000000000000000000000000000003e00000000000000000000000000c432be312c7326b983c19760d07bc76b9bc68f000000000000000000000000016f40be4fc1b8456a74171fae3265d1431b3bdf00000000000000000000000004e9f5bd176de05511618ab63aedeb6ae0f0d8e4000000000000000000000000074d7c7f52039ea5dc822f2db1d03010c9b27ee9000000000000000000000000080b62ceaedd748329222e3bb823bf75cfafaa890000000000000000000000000bf61023640b5ffa269ebaba895cc3662793a4c90000000000000000000000000c93f7e24370a79969d139bd84cb66dbce161f64000000000000000000000000111111176b0b13ffc31d387d08726772a0492948000000000000000000000000178d9514d67a427711c75263e9c910f901f8b8a900000000000000000000000019619fa171688224fef1b0600629b9b29ec28842000000000000000000000000272c8d1ebc05283653d2ca700d20ee9a628179c90000000000000000000000002780671ce8477362ca309d75ba8df47d11f55b590000000000000000000000002add2ae303ec567c734762f12b9865dc898034cd0000000000000000000000002e8834f8417a3bf2fe9949eb04ad6a1be19652f20000000000000000000000003329219a9e9a64c564a959deaa013f47b3947ccb00000000000000000000000033cfd90f164b4571ba45ebf283b427d33dd142da00000000000000000000000035bd369fe668588bd299b6d8068c41bfce0c17df0000000000000000000000003def5ce90b664a7b110b73b4f0ef00c8b482282400000000000000000000000042daacea431993d938bfeb85eb73e3537c498a5600000000000000000000000043e730ddea1192d1b455f38eb0f43c61ac4f8f26000000000000000000000000467cda3bfc2474fe04469d334fb6d0012b5a24990000000000000000000000005dcd3db7be7aecee7110805a3877fda4a02c4cdf0000000000000000000000005f39b0c2f940c1c2a2f9535d30f8998c6d3c0a3000000000000000000000000064000ef1eaaf7d175a0c9027d131f613f97f402000000000000000000000000064e5bf117b65943c37e7bd1b81269b53de8bcd260000000000000000000000006a75ac02b0a2f8e016ffda57611540022e5f1e6d0000000000000000000000006a92b9330849ec54f8b2cb0876a42cfff4993efa0000000000000000000000006b8d127d980c5b76a8404a9d74ac3b932bc1246f0000000000000000000000007131f5cd2e0a4ef3a38169e7bf5851459dbad20b00000000000000000000000072fddd31d88b262706d0e76f9c4efd898fcd418f000000000000000000000000766d5c405a4cc9de51aa694fffe922bccf31c46f0000000000000000000000007c9ea6fc3ce275a36188b3f9e58775bac1442cb6000000000000000000000000807a9fa3cedec27cf5bdf4bd093fc2a92fc7be79000000000000000000000000858dfe1dbea506c2fd4ec706536b0c61b58046ea0000000000000000000000008b24b1686832757e2f6d640e11e88e7f0064594a0000000000000000000000008fda37be82706d083076d92838a1db49795bab4a000000000000000000000000906df4bf7b99f1aafa5c9acfa56cb5685d6c878000000000000000000000000091430a1900baf381161d81428fbd879c1c8f6af8000000000000000000000000928153c752df49146eaadc7497658eb45108a1550000000000000000000000009a93ae4f408a1e7d178650ca9f7ab2135c512eda0000000000000000000000009f48749e0b81b107505dc3d4e11e755bb1fee7b7000000000000000000000000a258c243fa3ba5e230a57f47704c3b9df1bc62a0000000000000000000000000a4b6aa67ebd7470048ca8fa183e1085cab503b83000000000000000000000000a63967e4e87844972162d6b6897f4405f9903ff2000000000000000000000000a74fc66e75f883ee8e60e287335436ca8e6a303c000000000000000000000000ad65ae472e2c70e26c80c7a45714dd527bc59bb6000000000000000000000000b05dec2370a17478e726452bbfcd093f64f5b900000000000000000000000000b7646b1f9d1601fa769b5dbffa914cfa5714cb91000000000000000000000000b9fe36cac4174009dbcd11ac98db0d21c70f55cc000000000000000000000000bbf0a740eaa47020c67f7fe7032e687ee5c5eb7f000000000000000000000000bc9f696db4bb19ed0c1c4b25d092fdf70d978a76000000000000000000000000bd6ebc277890dbf41283427f64b568906d5a96ec000000000000000000000000bfe9277c0a337d7689c1321c39915debcda8f0c8000000000000000000000000ce020e4bca3a181cacd771a4750e03f384779313000000000000000000000000cf0b56dfefa3e0051a1772fc585b076a06487c53000000000000000000000000d1efdd037566b0c75cebace9150d26ea0153faa9000000000000000000000000d55da9119090a5ce1c7c99fc2e868b2e3bfed096000000000000000000000000d9d9ac409f3641acb2bfbe5563aec5263ad06537000000000000000000000000df4b06ee39d048c3fc47b685173053dd90a65319000000000000000000000000e26541380a96db028bb95fe9cb923e299a000a5d000000000000000000000000e519e5eb81f92bf19ecfc7e5d9c6418cd8c2e0b9000000000000000000000000ea6ce1d62bc1ca179b573aab956fe8b30d8bc0ff",
        "nonce": "0x10",
        "chainId": "0x1"
      },
      "additionalContracts": [],
      "isFixedGasLimit": false
    }
  ],
  "receipts": [
    {
      "status": "0x1",
      "cumulativeGasUsed": "0xb447e0",
      "logs": [
        {
          "address": "0x3744573093a9c0855584eca5631f8bf0e43d289d",
          "topics": [
            "0x6bb7ff708619ba0610cba295a58592e0451dee2622938c8755667688daf3529b",
            "0x0000000000000000000000000000000000000000000000000000000000000001"
          ],
          "data": "0x00000000000000000000000000000000000000000000000000000000000000200000000000000000000000000000000000000000000000000000000000000035697066733a2f2f516d55726a706b694d474a50586e7a6f4177445861357236783775506f654e617178506f46746132645166794e380000000000000000000000",
          "blockHash": "0x62e85e070e283fca1d164ad8a49359e44254daf33606e23a7623d02cbbd376e9",
          "blockNumber": "0x134c3cf",
          "transactionHash": "0xd065530f18ce424532e184184cf658a01c380c3aef77ff2f97b50a8973ab2910",
          "transactionIndex": "0x90",
          "logIndex": "0x15b",
          "removed": false
        }
      ],
      "logsBloom": "0x00000000000000000000000000000000000000000000000000000000000000000000000000000000000000000000000000000000000000000000000000040000000000000000110000000020000000000000000000040000000000000000000000000000000000000000000000000000000000000000000000000000000000000000000000000000000000000000001000000000000000000000800000000000000000000000000000000000000000000000000000000000000000000000000000000000000000000000000000000000000000000000000000000000000040000000000000000000200000000000000000000000000000000000000000000000",
      "type": "0x0",
      "transactionHash": "0xd065530f18ce424532e184184cf658a01c380c3aef77ff2f97b50a8973ab2910",
      "transactionIndex": "0x90",
      "blockHash": "0x62e85e070e283fca1d164ad8a49359e44254daf33606e23a7623d02cbbd376e9",
      "blockNumber": "0x134c3cf",
      "gasUsed": "0x174aa",
      "effectiveGasPrice": "0x18e35d8a9",
      "from": "0x4143ef8556b9e2a23cc2b2f91f8eaed413a0b260",
      "to": "0x3744573093a9c0855584eca5631f8bf0e43d289d",
      "contractAddress": null
    },
    {
      "status": "0x1",
      "cumulativeGasUsed": "0xcf5b34",
      "logs": [
        {
          "address": "0x3744573093a9c0855584eca5631f8bf0e43d289d",
          "topics": [
            "0xc3d58168c5ae7397731d063d5bbf3d657854427343f4c083240f7aacaa2d0f62",
            "0x0000000000000000000000004143ef8556b9e2a23cc2b2f91f8eaed413a0b260",
            "0x0000000000000000000000000000000000000000000000000000000000000000",
            "0x00000000000000000000000000c432be312c7326b983c19760d07bc76b9bc68f"
          ],
          "data": "0x00000000000000000000000000000000000000000000000000000000000000010000000000000000000000000000000000000000000000000000000000000001",
          "blockHash": "0x62e85e070e283fca1d164ad8a49359e44254daf33606e23a7623d02cbbd376e9",
          "blockNumber": "0x134c3cf",
          "transactionHash": "0x1b69be42e7303867bdda7d4c50a84dd3344b192974e30856c0f0f12073bb7047",
          "transactionIndex": "0x91",
          "logIndex": "0x15c",
          "removed": false
        },
        {
          "address": "0x3744573093a9c0855584eca5631f8bf0e43d289d",
          "topics": [
            "0xc3d58168c5ae7397731d063d5bbf3d657854427343f4c083240f7aacaa2d0f62",
            "0x0000000000000000000000004143ef8556b9e2a23cc2b2f91f8eaed413a0b260",
            "0x0000000000000000000000000000000000000000000000000000000000000000",
            "0x000000000000000000000000016f40be4fc1b8456a74171fae3265d1431b3bdf"
          ],
          "data": "0x00000000000000000000000000000000000000000000000000000000000000010000000000000000000000000000000000000000000000000000000000000001",
          "blockHash": "0x62e85e070e283fca1d164ad8a49359e44254daf33606e23a7623d02cbbd376e9",
          "blockNumber": "0x134c3cf",
          "transactionHash": "0x1b69be42e7303867bdda7d4c50a84dd3344b192974e30856c0f0f12073bb7047",
          "transactionIndex": "0x91",
          "logIndex": "0x15d",
          "removed": false
        },
        {
          "address": "0x3744573093a9c0855584eca5631f8bf0e43d289d",
          "topics": [
            "0xc3d58168c5ae7397731d063d5bbf3d657854427343f4c083240f7aacaa2d0f62",
            "0x0000000000000000000000004143ef8556b9e2a23cc2b2f91f8eaed413a0b260",
            "0x0000000000000000000000000000000000000000000000000000000000000000",
            "0x00000000000000000000000004e9f5bd176de05511618ab63aedeb6ae0f0d8e4"
          ],
          "data": "0x00000000000000000000000000000000000000000000000000000000000000010000000000000000000000000000000000000000000000000000000000000001",
          "blockHash": "0x62e85e070e283fca1d164ad8a49359e44254daf33606e23a7623d02cbbd376e9",
          "blockNumber": "0x134c3cf",
          "transactionHash": "0x1b69be42e7303867bdda7d4c50a84dd3344b192974e30856c0f0f12073bb7047",
          "transactionIndex": "0x91",
          "logIndex": "0x15e",
          "removed": false
        },
        {
          "address": "0x3744573093a9c0855584eca5631f8bf0e43d289d",
          "topics": [
            "0xc3d58168c5ae7397731d063d5bbf3d657854427343f4c083240f7aacaa2d0f62",
            "0x0000000000000000000000004143ef8556b9e2a23cc2b2f91f8eaed413a0b260",
            "0x0000000000000000000000000000000000000000000000000000000000000000",
            "0x000000000000000000000000074d7c7f52039ea5dc822f2db1d03010c9b27ee9"
          ],
          "data": "0x00000000000000000000000000000000000000000000000000000000000000010000000000000000000000000000000000000000000000000000000000000001",
          "blockHash": "0x62e85e070e283fca1d164ad8a49359e44254daf33606e23a7623d02cbbd376e9",
          "blockNumber": "0x134c3cf",
          "transactionHash": "0x1b69be42e7303867bdda7d4c50a84dd3344b192974e30856c0f0f12073bb7047",
          "transactionIndex": "0x91",
          "logIndex": "0x15f",
          "removed": false
        },
        {
          "address": "0x3744573093a9c0855584eca5631f8bf0e43d289d",
          "topics": [
            "0xc3d58168c5ae7397731d063d5bbf3d657854427343f4c083240f7aacaa2d0f62",
            "0x0000000000000000000000004143ef8556b9e2a23cc2b2f91f8eaed413a0b260",
            "0x0000000000000000000000000000000000000000000000000000000000000000",
            "0x000000000000000000000000080b62ceaedd748329222e3bb823bf75cfafaa89"
          ],
          "data": "0x00000000000000000000000000000000000000000000000000000000000000010000000000000000000000000000000000000000000000000000000000000001",
          "blockHash": "0x62e85e070e283fca1d164ad8a49359e44254daf33606e23a7623d02cbbd376e9",
          "blockNumber": "0x134c3cf",
          "transactionHash": "0x1b69be42e7303867bdda7d4c50a84dd3344b192974e30856c0f0f12073bb7047",
          "transactionIndex": "0x91",
          "logIndex": "0x160",
          "removed": false
        },
        {
          "address": "0x3744573093a9c0855584eca5631f8bf0e43d289d",
          "topics": [
            "0xc3d58168c5ae7397731d063d5bbf3d657854427343f4c083240f7aacaa2d0f62",
            "0x0000000000000000000000004143ef8556b9e2a23cc2b2f91f8eaed413a0b260",
            "0x0000000000000000000000000000000000000000000000000000000000000000",
            "0x0000000000000000000000000bf61023640b5ffa269ebaba895cc3662793a4c9"
          ],
          "data": "0x00000000000000000000000000000000000000000000000000000000000000010000000000000000000000000000000000000000000000000000000000000001",
          "blockHash": "0x62e85e070e283fca1d164ad8a49359e44254daf33606e23a7623d02cbbd376e9",
          "blockNumber": "0x134c3cf",
          "transactionHash": "0x1b69be42e7303867bdda7d4c50a84dd3344b192974e30856c0f0f12073bb7047",
          "transactionIndex": "0x91",
          "logIndex": "0x161",
          "removed": false
        },
        {
          "address": "0x3744573093a9c0855584eca5631f8bf0e43d289d",
          "topics": [
            "0xc3d58168c5ae7397731d063d5bbf3d657854427343f4c083240f7aacaa2d0f62",
            "0x0000000000000000000000004143ef8556b9e2a23cc2b2f91f8eaed413a0b260",
            "0x0000000000000000000000000000000000000000000000000000000000000000",
            "0x0000000000000000000000000c93f7e24370a79969d139bd84cb66dbce161f64"
          ],
          "data": "0x00000000000000000000000000000000000000000000000000000000000000010000000000000000000000000000000000000000000000000000000000000001",
          "blockHash": "0x62e85e070e283fca1d164ad8a49359e44254daf33606e23a7623d02cbbd376e9",
          "blockNumber": "0x134c3cf",
          "transactionHash": "0x1b69be42e7303867bdda7d4c50a84dd3344b192974e30856c0f0f12073bb7047",
          "transactionIndex": "0x91",
          "logIndex": "0x162",
          "removed": false
        },
        {
          "address": "0x3744573093a9c0855584eca5631f8bf0e43d289d",
          "topics": [
            "0xc3d58168c5ae7397731d063d5bbf3d657854427343f4c083240f7aacaa2d0f62",
            "0x0000000000000000000000004143ef8556b9e2a23cc2b2f91f8eaed413a0b260",
            "0x0000000000000000000000000000000000000000000000000000000000000000",
            "0x000000000000000000000000111111176b0b13ffc31d387d08726772a0492948"
          ],
          "data": "0x00000000000000000000000000000000000000000000000000000000000000010000000000000000000000000000000000000000000000000000000000000001",
          "blockHash": "0x62e85e070e283fca1d164ad8a49359e44254daf33606e23a7623d02cbbd376e9",
          "blockNumber": "0x134c3cf",
          "transactionHash": "0x1b69be42e7303867bdda7d4c50a84dd3344b192974e30856c0f0f12073bb7047",
          "transactionIndex": "0x91",
          "logIndex": "0x163",
          "removed": false
        },
        {
          "address": "0x3744573093a9c0855584eca5631f8bf0e43d289d",
          "topics": [
            "0xc3d58168c5ae7397731d063d5bbf3d657854427343f4c083240f7aacaa2d0f62",
            "0x0000000000000000000000004143ef8556b9e2a23cc2b2f91f8eaed413a0b260",
            "0x0000000000000000000000000000000000000000000000000000000000000000",
            "0x000000000000000000000000178d9514d67a427711c75263e9c910f901f8b8a9"
          ],
          "data": "0x00000000000000000000000000000000000000000000000000000000000000010000000000000000000000000000000000000000000000000000000000000001",
          "blockHash": "0x62e85e070e283fca1d164ad8a49359e44254daf33606e23a7623d02cbbd376e9",
          "blockNumber": "0x134c3cf",
          "transactionHash": "0x1b69be42e7303867bdda7d4c50a84dd3344b192974e30856c0f0f12073bb7047",
          "transactionIndex": "0x91",
          "logIndex": "0x164",
          "removed": false
        },
        {
          "address": "0x3744573093a9c0855584eca5631f8bf0e43d289d",
          "topics": [
            "0xc3d58168c5ae7397731d063d5bbf3d657854427343f4c083240f7aacaa2d0f62",
            "0x0000000000000000000000004143ef8556b9e2a23cc2b2f91f8eaed413a0b260",
            "0x0000000000000000000000000000000000000000000000000000000000000000",
            "0x00000000000000000000000019619fa171688224fef1b0600629b9b29ec28842"
          ],
          "data": "0x00000000000000000000000000000000000000000000000000000000000000010000000000000000000000000000000000000000000000000000000000000001",
          "blockHash": "0x62e85e070e283fca1d164ad8a49359e44254daf33606e23a7623d02cbbd376e9",
          "blockNumber": "0x134c3cf",
          "transactionHash": "0x1b69be42e7303867bdda7d4c50a84dd3344b192974e30856c0f0f12073bb7047",
          "transactionIndex": "0x91",
          "logIndex": "0x165",
          "removed": false
        },
        {
          "address": "0x3744573093a9c0855584eca5631f8bf0e43d289d",
          "topics": [
            "0xc3d58168c5ae7397731d063d5bbf3d657854427343f4c083240f7aacaa2d0f62",
            "0x0000000000000000000000004143ef8556b9e2a23cc2b2f91f8eaed413a0b260",
            "0x0000000000000000000000000000000000000000000000000000000000000000",
            "0x000000000000000000000000272c8d1ebc05283653d2ca700d20ee9a628179c9"
          ],
          "data": "0x00000000000000000000000000000000000000000000000000000000000000010000000000000000000000000000000000000000000000000000000000000001",
          "blockHash": "0x62e85e070e283fca1d164ad8a49359e44254daf33606e23a7623d02cbbd376e9",
          "blockNumber": "0x134c3cf",
          "transactionHash": "0x1b69be42e7303867bdda7d4c50a84dd3344b192974e30856c0f0f12073bb7047",
          "transactionIndex": "0x91",
          "logIndex": "0x166",
          "removed": false
        },
        {
          "address": "0x3744573093a9c0855584eca5631f8bf0e43d289d",
          "topics": [
            "0xc3d58168c5ae7397731d063d5bbf3d657854427343f4c083240f7aacaa2d0f62",
            "0x0000000000000000000000004143ef8556b9e2a23cc2b2f91f8eaed413a0b260",
            "0x0000000000000000000000000000000000000000000000000000000000000000",
            "0x0000000000000000000000002780671ce8477362ca309d75ba8df47d11f55b59"
          ],
          "data": "0x00000000000000000000000000000000000000000000000000000000000000010000000000000000000000000000000000000000000000000000000000000001",
          "blockHash": "0x62e85e070e283fca1d164ad8a49359e44254daf33606e23a7623d02cbbd376e9",
          "blockNumber": "0x134c3cf",
          "transactionHash": "0x1b69be42e7303867bdda7d4c50a84dd3344b192974e30856c0f0f12073bb7047",
          "transactionIndex": "0x91",
          "logIndex": "0x167",
          "removed": false
        },
        {
          "address": "0x3744573093a9c0855584eca5631f8bf0e43d289d",
          "topics": [
            "0xc3d58168c5ae7397731d063d5bbf3d657854427343f4c083240f7aacaa2d0f62",
            "0x0000000000000000000000004143ef8556b9e2a23cc2b2f91f8eaed413a0b260",
            "0x0000000000000000000000000000000000000000000000000000000000000000",
            "0x0000000000000000000000002add2ae303ec567c734762f12b9865dc898034cd"
          ],
          "data": "0x00000000000000000000000000000000000000000000000000000000000000010000000000000000000000000000000000000000000000000000000000000001",
          "blockHash": "0x62e85e070e283fca1d164ad8a49359e44254daf33606e23a7623d02cbbd376e9",
          "blockNumber": "0x134c3cf",
          "transactionHash": "0x1b69be42e7303867bdda7d4c50a84dd3344b192974e30856c0f0f12073bb7047",
          "transactionIndex": "0x91",
          "logIndex": "0x168",
          "removed": false
        },
        {
          "address": "0x3744573093a9c0855584eca5631f8bf0e43d289d",
          "topics": [
            "0xc3d58168c5ae7397731d063d5bbf3d657854427343f4c083240f7aacaa2d0f62",
            "0x0000000000000000000000004143ef8556b9e2a23cc2b2f91f8eaed413a0b260",
            "0x0000000000000000000000000000000000000000000000000000000000000000",
            "0x0000000000000000000000002e8834f8417a3bf2fe9949eb04ad6a1be19652f2"
          ],
          "data": "0x00000000000000000000000000000000000000000000000000000000000000010000000000000000000000000000000000000000000000000000000000000001",
          "blockHash": "0x62e85e070e283fca1d164ad8a49359e44254daf33606e23a7623d02cbbd376e9",
          "blockNumber": "0x134c3cf",
          "transactionHash": "0x1b69be42e7303867bdda7d4c50a84dd3344b192974e30856c0f0f12073bb7047",
          "transactionIndex": "0x91",
          "logIndex": "0x169",
          "removed": false
        },
        {
          "address": "0x3744573093a9c0855584eca5631f8bf0e43d289d",
          "topics": [
            "0xc3d58168c5ae7397731d063d5bbf3d657854427343f4c083240f7aacaa2d0f62",
            "0x0000000000000000000000004143ef8556b9e2a23cc2b2f91f8eaed413a0b260",
            "0x0000000000000000000000000000000000000000000000000000000000000000",
            "0x0000000000000000000000003329219a9e9a64c564a959deaa013f47b3947ccb"
          ],
          "data": "0x00000000000000000000000000000000000000000000000000000000000000010000000000000000000000000000000000000000000000000000000000000001",
          "blockHash": "0x62e85e070e283fca1d164ad8a49359e44254daf33606e23a7623d02cbbd376e9",
          "blockNumber": "0x134c3cf",
          "transactionHash": "0x1b69be42e7303867bdda7d4c50a84dd3344b192974e30856c0f0f12073bb7047",
          "transactionIndex": "0x91",
          "logIndex": "0x16a",
          "removed": false
        },
        {
          "address": "0x3744573093a9c0855584eca5631f8bf0e43d289d",
          "topics": [
            "0xc3d58168c5ae7397731d063d5bbf3d657854427343f4c083240f7aacaa2d0f62",
            "0x0000000000000000000000004143ef8556b9e2a23cc2b2f91f8eaed413a0b260",
            "0x0000000000000000000000000000000000000000000000000000000000000000",
            "0x00000000000000000000000033cfd90f164b4571ba45ebf283b427d33dd142da"
          ],
          "data": "0x00000000000000000000000000000000000000000000000000000000000000010000000000000000000000000000000000000000000000000000000000000001",
          "blockHash": "0x62e85e070e283fca1d164ad8a49359e44254daf33606e23a7623d02cbbd376e9",
          "blockNumber": "0x134c3cf",
          "transactionHash": "0x1b69be42e7303867bdda7d4c50a84dd3344b192974e30856c0f0f12073bb7047",
          "transactionIndex": "0x91",
          "logIndex": "0x16b",
          "removed": false
        },
        {
          "address": "0x3744573093a9c0855584eca5631f8bf0e43d289d",
          "topics": [
            "0xc3d58168c5ae7397731d063d5bbf3d657854427343f4c083240f7aacaa2d0f62",
            "0x0000000000000000000000004143ef8556b9e2a23cc2b2f91f8eaed413a0b260",
            "0x0000000000000000000000000000000000000000000000000000000000000000",
            "0x00000000000000000000000035bd369fe668588bd299b6d8068c41bfce0c17df"
          ],
          "data": "0x00000000000000000000000000000000000000000000000000000000000000010000000000000000000000000000000000000000000000000000000000000001",
          "blockHash": "0x62e85e070e283fca1d164ad8a49359e44254daf33606e23a7623d02cbbd376e9",
          "blockNumber": "0x134c3cf",
          "transactionHash": "0x1b69be42e7303867bdda7d4c50a84dd3344b192974e30856c0f0f12073bb7047",
          "transactionIndex": "0x91",
          "logIndex": "0x16c",
          "removed": false
        },
        {
          "address": "0x3744573093a9c0855584eca5631f8bf0e43d289d",
          "topics": [
            "0xc3d58168c5ae7397731d063d5bbf3d657854427343f4c083240f7aacaa2d0f62",
            "0x0000000000000000000000004143ef8556b9e2a23cc2b2f91f8eaed413a0b260",
            "0x0000000000000000000000000000000000000000000000000000000000000000",
            "0x0000000000000000000000003def5ce90b664a7b110b73b4f0ef00c8b4822824"
          ],
          "data": "0x00000000000000000000000000000000000000000000000000000000000000010000000000000000000000000000000000000000000000000000000000000001",
          "blockHash": "0x62e85e070e283fca1d164ad8a49359e44254daf33606e23a7623d02cbbd376e9",
          "blockNumber": "0x134c3cf",
          "transactionHash": "0x1b69be42e7303867bdda7d4c50a84dd3344b192974e30856c0f0f12073bb7047",
          "transactionIndex": "0x91",
          "logIndex": "0x16d",
          "removed": false
        },
        {
          "address": "0x3744573093a9c0855584eca5631f8bf0e43d289d",
          "topics": [
            "0xc3d58168c5ae7397731d063d5bbf3d657854427343f4c083240f7aacaa2d0f62",
            "0x0000000000000000000000004143ef8556b9e2a23cc2b2f91f8eaed413a0b260",
            "0x0000000000000000000000000000000000000000000000000000000000000000",
            "0x00000000000000000000000042daacea431993d938bfeb85eb73e3537c498a56"
          ],
          "data": "0x00000000000000000000000000000000000000000000000000000000000000010000000000000000000000000000000000000000000000000000000000000001",
          "blockHash": "0x62e85e070e283fca1d164ad8a49359e44254daf33606e23a7623d02cbbd376e9",
          "blockNumber": "0x134c3cf",
          "transactionHash": "0x1b69be42e7303867bdda7d4c50a84dd3344b192974e30856c0f0f12073bb7047",
          "transactionIndex": "0x91",
          "logIndex": "0x16e",
          "removed": false
        },
        {
          "address": "0x3744573093a9c0855584eca5631f8bf0e43d289d",
          "topics": [
            "0xc3d58168c5ae7397731d063d5bbf3d657854427343f4c083240f7aacaa2d0f62",
            "0x0000000000000000000000004143ef8556b9e2a23cc2b2f91f8eaed413a0b260",
            "0x0000000000000000000000000000000000000000000000000000000000000000",
            "0x00000000000000000000000043e730ddea1192d1b455f38eb0f43c61ac4f8f26"
          ],
          "data": "0x00000000000000000000000000000000000000000000000000000000000000010000000000000000000000000000000000000000000000000000000000000001",
          "blockHash": "0x62e85e070e283fca1d164ad8a49359e44254daf33606e23a7623d02cbbd376e9",
          "blockNumber": "0x134c3cf",
          "transactionHash": "0x1b69be42e7303867bdda7d4c50a84dd3344b192974e30856c0f0f12073bb7047",
          "transactionIndex": "0x91",
          "logIndex": "0x16f",
          "removed": false
        },
        {
          "address": "0x3744573093a9c0855584eca5631f8bf0e43d289d",
          "topics": [
            "0xc3d58168c5ae7397731d063d5bbf3d657854427343f4c083240f7aacaa2d0f62",
            "0x0000000000000000000000004143ef8556b9e2a23cc2b2f91f8eaed413a0b260",
            "0x0000000000000000000000000000000000000000000000000000000000000000",
            "0x000000000000000000000000467cda3bfc2474fe04469d334fb6d0012b5a2499"
          ],
          "data": "0x00000000000000000000000000000000000000000000000000000000000000010000000000000000000000000000000000000000000000000000000000000001",
          "blockHash": "0x62e85e070e283fca1d164ad8a49359e44254daf33606e23a7623d02cbbd376e9",
          "blockNumber": "0x134c3cf",
          "transactionHash": "0x1b69be42e7303867bdda7d4c50a84dd3344b192974e30856c0f0f12073bb7047",
          "transactionIndex": "0x91",
          "logIndex": "0x170",
          "removed": false
        },
        {
          "address": "0x3744573093a9c0855584eca5631f8bf0e43d289d",
          "topics": [
            "0xc3d58168c5ae7397731d063d5bbf3d657854427343f4c083240f7aacaa2d0f62",
            "0x0000000000000000000000004143ef8556b9e2a23cc2b2f91f8eaed413a0b260",
            "0x0000000000000000000000000000000000000000000000000000000000000000",
            "0x0000000000000000000000005dcd3db7be7aecee7110805a3877fda4a02c4cdf"
          ],
          "data": "0x00000000000000000000000000000000000000000000000000000000000000010000000000000000000000000000000000000000000000000000000000000001",
          "blockHash": "0x62e85e070e283fca1d164ad8a49359e44254daf33606e23a7623d02cbbd376e9",
          "blockNumber": "0x134c3cf",
          "transactionHash": "0x1b69be42e7303867bdda7d4c50a84dd3344b192974e30856c0f0f12073bb7047",
          "transactionIndex": "0x91",
          "logIndex": "0x171",
          "removed": false
        },
        {
          "address": "0x3744573093a9c0855584eca5631f8bf0e43d289d",
          "topics": [
            "0xc3d58168c5ae7397731d063d5bbf3d657854427343f4c083240f7aacaa2d0f62",
            "0x0000000000000000000000004143ef8556b9e2a23cc2b2f91f8eaed413a0b260",
            "0x0000000000000000000000000000000000000000000000000000000000000000",
            "0x0000000000000000000000005f39b0c2f940c1c2a2f9535d30f8998c6d3c0a30"
          ],
          "data": "0x00000000000000000000000000000000000000000000000000000000000000010000000000000000000000000000000000000000000000000000000000000001",
          "blockHash": "0x62e85e070e283fca1d164ad8a49359e44254daf33606e23a7623d02cbbd376e9",
          "blockNumber": "0x134c3cf",
          "transactionHash": "0x1b69be42e7303867bdda7d4c50a84dd3344b192974e30856c0f0f12073bb7047",
          "transactionIndex": "0x91",
          "logIndex": "0x172",
          "removed": false
        },
        {
          "address": "0x3744573093a9c0855584eca5631f8bf0e43d289d",
          "topics": [
            "0xc3d58168c5ae7397731d063d5bbf3d657854427343f4c083240f7aacaa2d0f62",
            "0x0000000000000000000000004143ef8556b9e2a23cc2b2f91f8eaed413a0b260",
            "0x0000000000000000000000000000000000000000000000000000000000000000",
            "0x00000000000000000000000064000ef1eaaf7d175a0c9027d131f613f97f4020"
          ],
          "data": "0x00000000000000000000000000000000000000000000000000000000000000010000000000000000000000000000000000000000000000000000000000000001",
          "blockHash": "0x62e85e070e283fca1d164ad8a49359e44254daf33606e23a7623d02cbbd376e9",
          "blockNumber": "0x134c3cf",
          "transactionHash": "0x1b69be42e7303867bdda7d4c50a84dd3344b192974e30856c0f0f12073bb7047",
          "transactionIndex": "0x91",
          "logIndex": "0x173",
          "removed": false
        },
        {
          "address": "0x3744573093a9c0855584eca5631f8bf0e43d289d",
          "topics": [
            "0xc3d58168c5ae7397731d063d5bbf3d657854427343f4c083240f7aacaa2d0f62",
            "0x0000000000000000000000004143ef8556b9e2a23cc2b2f91f8eaed413a0b260",
            "0x0000000000000000000000000000000000000000000000000000000000000000",
            "0x00000000000000000000000064e5bf117b65943c37e7bd1b81269b53de8bcd26"
          ],
          "data": "0x00000000000000000000000000000000000000000000000000000000000000010000000000000000000000000000000000000000000000000000000000000001",
          "blockHash": "0x62e85e070e283fca1d164ad8a49359e44254daf33606e23a7623d02cbbd376e9",
          "blockNumber": "0x134c3cf",
          "transactionHash": "0x1b69be42e7303867bdda7d4c50a84dd3344b192974e30856c0f0f12073bb7047",
          "transactionIndex": "0x91",
          "logIndex": "0x174",
          "removed": false
        },
        {
          "address": "0x3744573093a9c0855584eca5631f8bf0e43d289d",
          "topics": [
            "0xc3d58168c5ae7397731d063d5bbf3d657854427343f4c083240f7aacaa2d0f62",
            "0x0000000000000000000000004143ef8556b9e2a23cc2b2f91f8eaed413a0b260",
            "0x0000000000000000000000000000000000000000000000000000000000000000",
            "0x0000000000000000000000006a75ac02b0a2f8e016ffda57611540022e5f1e6d"
          ],
          "data": "0x00000000000000000000000000000000000000000000000000000000000000010000000000000000000000000000000000000000000000000000000000000001",
          "blockHash": "0x62e85e070e283fca1d164ad8a49359e44254daf33606e23a7623d02cbbd376e9",
          "blockNumber": "0x134c3cf",
          "transactionHash": "0x1b69be42e7303867bdda7d4c50a84dd3344b192974e30856c0f0f12073bb7047",
          "transactionIndex": "0x91",
          "logIndex": "0x175",
          "removed": false
        },
        {
          "address": "0x3744573093a9c0855584eca5631f8bf0e43d289d",
          "topics": [
            "0xc3d58168c5ae7397731d063d5bbf3d657854427343f4c083240f7aacaa2d0f62",
            "0x0000000000000000000000004143ef8556b9e2a23cc2b2f91f8eaed413a0b260",
            "0x0000000000000000000000000000000000000000000000000000000000000000",
            "0x0000000000000000000000006a92b9330849ec54f8b2cb0876a42cfff4993efa"
          ],
          "data": "0x00000000000000000000000000000000000000000000000000000000000000010000000000000000000000000000000000000000000000000000000000000001",
          "blockHash": "0x62e85e070e283fca1d164ad8a49359e44254daf33606e23a7623d02cbbd376e9",
          "blockNumber": "0x134c3cf",
          "transactionHash": "0x1b69be42e7303867bdda7d4c50a84dd3344b192974e30856c0f0f12073bb7047",
          "transactionIndex": "0x91",
          "logIndex": "0x176",
          "removed": false
        },
        {
          "address": "0x3744573093a9c0855584eca5631f8bf0e43d289d",
          "topics": [
            "0xc3d58168c5ae7397731d063d5bbf3d657854427343f4c083240f7aacaa2d0f62",
            "0x0000000000000000000000004143ef8556b9e2a23cc2b2f91f8eaed413a0b260",
            "0x0000000000000000000000000000000000000000000000000000000000000000",
            "0x0000000000000000000000006b8d127d980c5b76a8404a9d74ac3b932bc1246f"
          ],
          "data": "0x00000000000000000000000000000000000000000000000000000000000000010000000000000000000000000000000000000000000000000000000000000001",
          "blockHash": "0x62e85e070e283fca1d164ad8a49359e44254daf33606e23a7623d02cbbd376e9",
          "blockNumber": "0x134c3cf",
          "transactionHash": "0x1b69be42e7303867bdda7d4c50a84dd3344b192974e30856c0f0f12073bb7047",
          "transactionIndex": "0x91",
          "logIndex": "0x177",
          "removed": false
        },
        {
          "address": "0x3744573093a9c0855584eca5631f8bf0e43d289d",
          "topics": [
            "0xc3d58168c5ae7397731d063d5bbf3d657854427343f4c083240f7aacaa2d0f62",
            "0x0000000000000000000000004143ef8556b9e2a23cc2b2f91f8eaed413a0b260",
            "0x0000000000000000000000000000000000000000000000000000000000000000",
            "0x0000000000000000000000007131f5cd2e0a4ef3a38169e7bf5851459dbad20b"
          ],
          "data": "0x00000000000000000000000000000000000000000000000000000000000000010000000000000000000000000000000000000000000000000000000000000001",
          "blockHash": "0x62e85e070e283fca1d164ad8a49359e44254daf33606e23a7623d02cbbd376e9",
          "blockNumber": "0x134c3cf",
          "transactionHash": "0x1b69be42e7303867bdda7d4c50a84dd3344b192974e30856c0f0f12073bb7047",
          "transactionIndex": "0x91",
          "logIndex": "0x178",
          "removed": false
        },
        {
          "address": "0x3744573093a9c0855584eca5631f8bf0e43d289d",
          "topics": [
            "0xc3d58168c5ae7397731d063d5bbf3d657854427343f4c083240f7aacaa2d0f62",
            "0x0000000000000000000000004143ef8556b9e2a23cc2b2f91f8eaed413a0b260",
            "0x0000000000000000000000000000000000000000000000000000000000000000",
            "0x00000000000000000000000072fddd31d88b262706d0e76f9c4efd898fcd418f"
          ],
          "data": "0x00000000000000000000000000000000000000000000000000000000000000010000000000000000000000000000000000000000000000000000000000000001",
          "blockHash": "0x62e85e070e283fca1d164ad8a49359e44254daf33606e23a7623d02cbbd376e9",
          "blockNumber": "0x134c3cf",
          "transactionHash": "0x1b69be42e7303867bdda7d4c50a84dd3344b192974e30856c0f0f12073bb7047",
          "transactionIndex": "0x91",
          "logIndex": "0x179",
          "removed": false
        },
        {
          "address": "0x3744573093a9c0855584eca5631f8bf0e43d289d",
          "topics": [
            "0xc3d58168c5ae7397731d063d5bbf3d657854427343f4c083240f7aacaa2d0f62",
            "0x0000000000000000000000004143ef8556b9e2a23cc2b2f91f8eaed413a0b260",
            "0x0000000000000000000000000000000000000000000000000000000000000000",
            "0x000000000000000000000000766d5c405a4cc9de51aa694fffe922bccf31c46f"
          ],
          "data": "0x00000000000000000000000000000000000000000000000000000000000000010000000000000000000000000000000000000000000000000000000000000001",
          "blockHash": "0x62e85e070e283fca1d164ad8a49359e44254daf33606e23a7623d02cbbd376e9",
          "blockNumber": "0x134c3cf",
          "transactionHash": "0x1b69be42e7303867bdda7d4c50a84dd3344b192974e30856c0f0f12073bb7047",
          "transactionIndex": "0x91",
          "logIndex": "0x17a",
          "removed": false
        },
        {
          "address": "0x3744573093a9c0855584eca5631f8bf0e43d289d",
          "topics": [
            "0xc3d58168c5ae7397731d063d5bbf3d657854427343f4c083240f7aacaa2d0f62",
            "0x0000000000000000000000004143ef8556b9e2a23cc2b2f91f8eaed413a0b260",
            "0x0000000000000000000000000000000000000000000000000000000000000000",
            "0x0000000000000000000000007c9ea6fc3ce275a36188b3f9e58775bac1442cb6"
          ],
          "data": "0x00000000000000000000000000000000000000000000000000000000000000010000000000000000000000000000000000000000000000000000000000000001",
          "blockHash": "0x62e85e070e283fca1d164ad8a49359e44254daf33606e23a7623d02cbbd376e9",
          "blockNumber": "0x134c3cf",
          "transactionHash": "0x1b69be42e7303867bdda7d4c50a84dd3344b192974e30856c0f0f12073bb7047",
          "transactionIndex": "0x91",
          "logIndex": "0x17b",
          "removed": false
        },
        {
          "address": "0x3744573093a9c0855584eca5631f8bf0e43d289d",
          "topics": [
            "0xc3d58168c5ae7397731d063d5bbf3d657854427343f4c083240f7aacaa2d0f62",
            "0x0000000000000000000000004143ef8556b9e2a23cc2b2f91f8eaed413a0b260",
            "0x0000000000000000000000000000000000000000000000000000000000000000",
            "0x000000000000000000000000807a9fa3cedec27cf5bdf4bd093fc2a92fc7be79"
          ],
          "data": "0x00000000000000000000000000000000000000000000000000000000000000010000000000000000000000000000000000000000000000000000000000000001",
          "blockHash": "0x62e85e070e283fca1d164ad8a49359e44254daf33606e23a7623d02cbbd376e9",
          "blockNumber": "0x134c3cf",
          "transactionHash": "0x1b69be42e7303867bdda7d4c50a84dd3344b192974e30856c0f0f12073bb7047",
          "transactionIndex": "0x91",
          "logIndex": "0x17c",
          "removed": false
        },
        {
          "address": "0x3744573093a9c0855584eca5631f8bf0e43d289d",
          "topics": [
            "0xc3d58168c5ae7397731d063d5bbf3d657854427343f4c083240f7aacaa2d0f62",
            "0x0000000000000000000000004143ef8556b9e2a23cc2b2f91f8eaed413a0b260",
            "0x0000000000000000000000000000000000000000000000000000000000000000",
            "0x000000000000000000000000858dfe1dbea506c2fd4ec706536b0c61b58046ea"
          ],
          "data": "0x00000000000000000000000000000000000000000000000000000000000000010000000000000000000000000000000000000000000000000000000000000001",
          "blockHash": "0x62e85e070e283fca1d164ad8a49359e44254daf33606e23a7623d02cbbd376e9",
          "blockNumber": "0x134c3cf",
          "transactionHash": "0x1b69be42e7303867bdda7d4c50a84dd3344b192974e30856c0f0f12073bb7047",
          "transactionIndex": "0x91",
          "logIndex": "0x17d",
          "removed": false
        },
        {
          "address": "0x3744573093a9c0855584eca5631f8bf0e43d289d",
          "topics": [
            "0xc3d58168c5ae7397731d063d5bbf3d657854427343f4c083240f7aacaa2d0f62",
            "0x0000000000000000000000004143ef8556b9e2a23cc2b2f91f8eaed413a0b260",
            "0x0000000000000000000000000000000000000000000000000000000000000000",
            "0x0000000000000000000000008b24b1686832757e2f6d640e11e88e7f0064594a"
          ],
          "data": "0x00000000000000000000000000000000000000000000000000000000000000010000000000000000000000000000000000000000000000000000000000000001",
          "blockHash": "0x62e85e070e283fca1d164ad8a49359e44254daf33606e23a7623d02cbbd376e9",
          "blockNumber": "0x134c3cf",
          "transactionHash": "0x1b69be42e7303867bdda7d4c50a84dd3344b192974e30856c0f0f12073bb7047",
          "transactionIndex": "0x91",
          "logIndex": "0x17e",
          "removed": false
        },
        {
          "address": "0x3744573093a9c0855584eca5631f8bf0e43d289d",
          "topics": [
            "0xc3d58168c5ae7397731d063d5bbf3d657854427343f4c083240f7aacaa2d0f62",
            "0x0000000000000000000000004143ef8556b9e2a23cc2b2f91f8eaed413a0b260",
            "0x0000000000000000000000000000000000000000000000000000000000000000",
            "0x0000000000000000000000008fda37be82706d083076d92838a1db49795bab4a"
          ],
          "data": "0x00000000000000000000000000000000000000000000000000000000000000010000000000000000000000000000000000000000000000000000000000000001",
          "blockHash": "0x62e85e070e283fca1d164ad8a49359e44254daf33606e23a7623d02cbbd376e9",
          "blockNumber": "0x134c3cf",
          "transactionHash": "0x1b69be42e7303867bdda7d4c50a84dd3344b192974e30856c0f0f12073bb7047",
          "transactionIndex": "0x91",
          "logIndex": "0x17f",
          "removed": false
        },
        {
          "address": "0x3744573093a9c0855584eca5631f8bf0e43d289d",
          "topics": [
            "0xc3d58168c5ae7397731d063d5bbf3d657854427343f4c083240f7aacaa2d0f62",
            "0x0000000000000000000000004143ef8556b9e2a23cc2b2f91f8eaed413a0b260",
            "0x0000000000000000000000000000000000000000000000000000000000000000",
            "0x000000000000000000000000906df4bf7b99f1aafa5c9acfa56cb5685d6c8780"
          ],
          "data": "0x00000000000000000000000000000000000000000000000000000000000000010000000000000000000000000000000000000000000000000000000000000001",
          "blockHash": "0x62e85e070e283fca1d164ad8a49359e44254daf33606e23a7623d02cbbd376e9",
          "blockNumber": "0x134c3cf",
          "transactionHash": "0x1b69be42e7303867bdda7d4c50a84dd3344b192974e30856c0f0f12073bb7047",
          "transactionIndex": "0x91",
          "logIndex": "0x180",
          "removed": false
        },
        {
          "address": "0x3744573093a9c0855584eca5631f8bf0e43d289d",
          "topics": [
            "0xc3d58168c5ae7397731d063d5bbf3d657854427343f4c083240f7aacaa2d0f62",
            "0x0000000000000000000000004143ef8556b9e2a23cc2b2f91f8eaed413a0b260",
            "0x0000000000000000000000000000000000000000000000000000000000000000",
            "0x00000000000000000000000091430a1900baf381161d81428fbd879c1c8f6af8"
          ],
          "data": "0x00000000000000000000000000000000000000000000000000000000000000010000000000000000000000000000000000000000000000000000000000000001",
          "blockHash": "0x62e85e070e283fca1d164ad8a49359e44254daf33606e23a7623d02cbbd376e9",
          "blockNumber": "0x134c3cf",
          "transactionHash": "0x1b69be42e7303867bdda7d4c50a84dd3344b192974e30856c0f0f12073bb7047",
          "transactionIndex": "0x91",
          "logIndex": "0x181",
          "removed": false
        },
        {
          "address": "0x3744573093a9c0855584eca5631f8bf0e43d289d",
          "topics": [
            "0xc3d58168c5ae7397731d063d5bbf3d657854427343f4c083240f7aacaa2d0f62",
            "0x0000000000000000000000004143ef8556b9e2a23cc2b2f91f8eaed413a0b260",
            "0x0000000000000000000000000000000000000000000000000000000000000000",
            "0x000000000000000000000000928153c752df49146eaadc7497658eb45108a155"
          ],
          "data": "0x00000000000000000000000000000000000000000000000000000000000000010000000000000000000000000000000000000000000000000000000000000001",
          "blockHash": "0x62e85e070e283fca1d164ad8a49359e44254daf33606e23a7623d02cbbd376e9",
          "blockNumber": "0x134c3cf",
          "transactionHash": "0x1b69be42e7303867bdda7d4c50a84dd3344b192974e30856c0f0f12073bb7047",
          "transactionIndex": "0x91",
          "logIndex": "0x182",
          "removed": false
        },
        {
          "address": "0x3744573093a9c0855584eca5631f8bf0e43d289d",
          "topics": [
            "0xc3d58168c5ae7397731d063d5bbf3d657854427343f4c083240f7aacaa2d0f62",
            "0x0000000000000000000000004143ef8556b9e2a23cc2b2f91f8eaed413a0b260",
            "0x0000000000000000000000000000000000000000000000000000000000000000",
            "0x0000000000000000000000009a93ae4f408a1e7d178650ca9f7ab2135c512eda"
          ],
          "data": "0x00000000000000000000000000000000000000000000000000000000000000010000000000000000000000000000000000000000000000000000000000000001",
          "blockHash": "0x62e85e070e283fca1d164ad8a49359e44254daf33606e23a7623d02cbbd376e9",
          "blockNumber": "0x134c3cf",
          "transactionHash": "0x1b69be42e7303867bdda7d4c50a84dd3344b192974e30856c0f0f12073bb7047",
          "transactionIndex": "0x91",
          "logIndex": "0x183",
          "removed": false
        },
        {
          "address": "0x3744573093a9c0855584eca5631f8bf0e43d289d",
          "topics": [
            "0xc3d58168c5ae7397731d063d5bbf3d657854427343f4c083240f7aacaa2d0f62",
            "0x0000000000000000000000004143ef8556b9e2a23cc2b2f91f8eaed413a0b260",
            "0x0000000000000000000000000000000000000000000000000000000000000000",
            "0x0000000000000000000000009f48749e0b81b107505dc3d4e11e755bb1fee7b7"
          ],
          "data": "0x00000000000000000000000000000000000000000000000000000000000000010000000000000000000000000000000000000000000000000000000000000001",
          "blockHash": "0x62e85e070e283fca1d164ad8a49359e44254daf33606e23a7623d02cbbd376e9",
          "blockNumber": "0x134c3cf",
          "transactionHash": "0x1b69be42e7303867bdda7d4c50a84dd3344b192974e30856c0f0f12073bb7047",
          "transactionIndex": "0x91",
          "logIndex": "0x184",
          "removed": false
        },
        {
          "address": "0x3744573093a9c0855584eca5631f8bf0e43d289d",
          "topics": [
            "0xc3d58168c5ae7397731d063d5bbf3d657854427343f4c083240f7aacaa2d0f62",
            "0x0000000000000000000000004143ef8556b9e2a23cc2b2f91f8eaed413a0b260",
            "0x0000000000000000000000000000000000000000000000000000000000000000",
            "0x000000000000000000000000a258c243fa3ba5e230a57f47704c3b9df1bc62a0"
          ],
          "data": "0x00000000000000000000000000000000000000000000000000000000000000010000000000000000000000000000000000000000000000000000000000000001",
          "blockHash": "0x62e85e070e283fca1d164ad8a49359e44254daf33606e23a7623d02cbbd376e9",
          "blockNumber": "0x134c3cf",
          "transactionHash": "0x1b69be42e7303867bdda7d4c50a84dd3344b192974e30856c0f0f12073bb7047",
          "transactionIndex": "0x91",
          "logIndex": "0x185",
          "removed": false
        },
        {
          "address": "0x3744573093a9c0855584eca5631f8bf0e43d289d",
          "topics": [
            "0xc3d58168c5ae7397731d063d5bbf3d657854427343f4c083240f7aacaa2d0f62",
            "0x0000000000000000000000004143ef8556b9e2a23cc2b2f91f8eaed413a0b260",
            "0x0000000000000000000000000000000000000000000000000000000000000000",
            "0x000000000000000000000000a4b6aa67ebd7470048ca8fa183e1085cab503b83"
          ],
          "data": "0x00000000000000000000000000000000000000000000000000000000000000010000000000000000000000000000000000000000000000000000000000000001",
          "blockHash": "0x62e85e070e283fca1d164ad8a49359e44254daf33606e23a7623d02cbbd376e9",
          "blockNumber": "0x134c3cf",
          "transactionHash": "0x1b69be42e7303867bdda7d4c50a84dd3344b192974e30856c0f0f12073bb7047",
          "transactionIndex": "0x91",
          "logIndex": "0x186",
          "removed": false
        },
        {
          "address": "0x3744573093a9c0855584eca5631f8bf0e43d289d",
          "topics": [
            "0xc3d58168c5ae7397731d063d5bbf3d657854427343f4c083240f7aacaa2d0f62",
            "0x0000000000000000000000004143ef8556b9e2a23cc2b2f91f8eaed413a0b260",
            "0x0000000000000000000000000000000000000000000000000000000000000000",
            "0x000000000000000000000000a63967e4e87844972162d6b6897f4405f9903ff2"
          ],
          "data": "0x00000000000000000000000000000000000000000000000000000000000000010000000000000000000000000000000000000000000000000000000000000001",
          "blockHash": "0x62e85e070e283fca1d164ad8a49359e44254daf33606e23a7623d02cbbd376e9",
          "blockNumber": "0x134c3cf",
          "transactionHash": "0x1b69be42e7303867bdda7d4c50a84dd3344b192974e30856c0f0f12073bb7047",
          "transactionIndex": "0x91",
          "logIndex": "0x187",
          "removed": false
        },
        {
          "address": "0x3744573093a9c0855584eca5631f8bf0e43d289d",
          "topics": [
            "0xc3d58168c5ae7397731d063d5bbf3d657854427343f4c083240f7aacaa2d0f62",
            "0x0000000000000000000000004143ef8556b9e2a23cc2b2f91f8eaed413a0b260",
            "0x0000000000000000000000000000000000000000000000000000000000000000",
            "0x000000000000000000000000a74fc66e75f883ee8e60e287335436ca8e6a303c"
          ],
          "data": "0x00000000000000000000000000000000000000000000000000000000000000010000000000000000000000000000000000000000000000000000000000000001",
          "blockHash": "0x62e85e070e283fca1d164ad8a49359e44254daf33606e23a7623d02cbbd376e9",
          "blockNumber": "0x134c3cf",
          "transactionHash": "0x1b69be42e7303867bdda7d4c50a84dd3344b192974e30856c0f0f12073bb7047",
          "transactionIndex": "0x91",
          "logIndex": "0x188",
          "removed": false
        },
        {
          "address": "0x3744573093a9c0855584eca5631f8bf0e43d289d",
          "topics": [
            "0xc3d58168c5ae7397731d063d5bbf3d657854427343f4c083240f7aacaa2d0f62",
            "0x0000000000000000000000004143ef8556b9e2a23cc2b2f91f8eaed413a0b260",
            "0x0000000000000000000000000000000000000000000000000000000000000000",
            "0x000000000000000000000000ad65ae472e2c70e26c80c7a45714dd527bc59bb6"
          ],
          "data": "0x00000000000000000000000000000000000000000000000000000000000000010000000000000000000000000000000000000000000000000000000000000001",
          "blockHash": "0x62e85e070e283fca1d164ad8a49359e44254daf33606e23a7623d02cbbd376e9",
          "blockNumber": "0x134c3cf",
          "transactionHash": "0x1b69be42e7303867bdda7d4c50a84dd3344b192974e30856c0f0f12073bb7047",
          "transactionIndex": "0x91",
          "logIndex": "0x189",
          "removed": false
        },
        {
          "address": "0x3744573093a9c0855584eca5631f8bf0e43d289d",
          "topics": [
            "0xc3d58168c5ae7397731d063d5bbf3d657854427343f4c083240f7aacaa2d0f62",
            "0x0000000000000000000000004143ef8556b9e2a23cc2b2f91f8eaed413a0b260",
            "0x0000000000000000000000000000000000000000000000000000000000000000",
            "0x000000000000000000000000b05dec2370a17478e726452bbfcd093f64f5b900"
          ],
          "data": "0x00000000000000000000000000000000000000000000000000000000000000010000000000000000000000000000000000000000000000000000000000000001",
          "blockHash": "0x62e85e070e283fca1d164ad8a49359e44254daf33606e23a7623d02cbbd376e9",
          "blockNumber": "0x134c3cf",
          "transactionHash": "0x1b69be42e7303867bdda7d4c50a84dd3344b192974e30856c0f0f12073bb7047",
          "transactionIndex": "0x91",
          "logIndex": "0x18a",
          "removed": false
        },
        {
          "address": "0x3744573093a9c0855584eca5631f8bf0e43d289d",
          "topics": [
            "0xc3d58168c5ae7397731d063d5bbf3d657854427343f4c083240f7aacaa2d0f62",
            "0x0000000000000000000000004143ef8556b9e2a23cc2b2f91f8eaed413a0b260",
            "0x0000000000000000000000000000000000000000000000000000000000000000",
            "0x000000000000000000000000b7646b1f9d1601fa769b5dbffa914cfa5714cb91"
          ],
          "data": "0x00000000000000000000000000000000000000000000000000000000000000010000000000000000000000000000000000000000000000000000000000000001",
          "blockHash": "0x62e85e070e283fca1d164ad8a49359e44254daf33606e23a7623d02cbbd376e9",
          "blockNumber": "0x134c3cf",
          "transactionHash": "0x1b69be42e7303867bdda7d4c50a84dd3344b192974e30856c0f0f12073bb7047",
          "transactionIndex": "0x91",
          "logIndex": "0x18b",
          "removed": false
        },
        {
          "address": "0x3744573093a9c0855584eca5631f8bf0e43d289d",
          "topics": [
            "0xc3d58168c5ae7397731d063d5bbf3d657854427343f4c083240f7aacaa2d0f62",
            "0x0000000000000000000000004143ef8556b9e2a23cc2b2f91f8eaed413a0b260",
            "0x0000000000000000000000000000000000000000000000000000000000000000",
            "0x000000000000000000000000b9fe36cac4174009dbcd11ac98db0d21c70f55cc"
          ],
          "data": "0x00000000000000000000000000000000000000000000000000000000000000010000000000000000000000000000000000000000000000000000000000000001",
          "blockHash": "0x62e85e070e283fca1d164ad8a49359e44254daf33606e23a7623d02cbbd376e9",
          "blockNumber": "0x134c3cf",
          "transactionHash": "0x1b69be42e7303867bdda7d4c50a84dd3344b192974e30856c0f0f12073bb7047",
          "transactionIndex": "0x91",
          "logIndex": "0x18c",
          "removed": false
        },
        {
          "address": "0x3744573093a9c0855584eca5631f8bf0e43d289d",
          "topics": [
            "0xc3d58168c5ae7397731d063d5bbf3d657854427343f4c083240f7aacaa2d0f62",
            "0x0000000000000000000000004143ef8556b9e2a23cc2b2f91f8eaed413a0b260",
            "0x0000000000000000000000000000000000000000000000000000000000000000",
            "0x000000000000000000000000bbf0a740eaa47020c67f7fe7032e687ee5c5eb7f"
          ],
          "data": "0x00000000000000000000000000000000000000000000000000000000000000010000000000000000000000000000000000000000000000000000000000000001",
          "blockHash": "0x62e85e070e283fca1d164ad8a49359e44254daf33606e23a7623d02cbbd376e9",
          "blockNumber": "0x134c3cf",
          "transactionHash": "0x1b69be42e7303867bdda7d4c50a84dd3344b192974e30856c0f0f12073bb7047",
          "transactionIndex": "0x91",
          "logIndex": "0x18d",
          "removed": false
        },
        {
          "address": "0x3744573093a9c0855584eca5631f8bf0e43d289d",
          "topics": [
            "0xc3d58168c5ae7397731d063d5bbf3d657854427343f4c083240f7aacaa2d0f62",
            "0x0000000000000000000000004143ef8556b9e2a23cc2b2f91f8eaed413a0b260",
            "0x0000000000000000000000000000000000000000000000000000000000000000",
            "0x000000000000000000000000bc9f696db4bb19ed0c1c4b25d092fdf70d978a76"
          ],
          "data": "0x00000000000000000000000000000000000000000000000000000000000000010000000000000000000000000000000000000000000000000000000000000001",
          "blockHash": "0x62e85e070e283fca1d164ad8a49359e44254daf33606e23a7623d02cbbd376e9",
          "blockNumber": "0x134c3cf",
          "transactionHash": "0x1b69be42e7303867bdda7d4c50a84dd3344b192974e30856c0f0f12073bb7047",
          "transactionIndex": "0x91",
          "logIndex": "0x18e",
          "removed": false
        },
        {
          "address": "0x3744573093a9c0855584eca5631f8bf0e43d289d",
          "topics": [
            "0xc3d58168c5ae7397731d063d5bbf3d657854427343f4c083240f7aacaa2d0f62",
            "0x0000000000000000000000004143ef8556b9e2a23cc2b2f91f8eaed413a0b260",
            "0x0000000000000000000000000000000000000000000000000000000000000000",
            "0x000000000000000000000000bd6ebc277890dbf41283427f64b568906d5a96ec"
          ],
          "data": "0x00000000000000000000000000000000000000000000000000000000000000010000000000000000000000000000000000000000000000000000000000000001",
          "blockHash": "0x62e85e070e283fca1d164ad8a49359e44254daf33606e23a7623d02cbbd376e9",
          "blockNumber": "0x134c3cf",
          "transactionHash": "0x1b69be42e7303867bdda7d4c50a84dd3344b192974e30856c0f0f12073bb7047",
          "transactionIndex": "0x91",
          "logIndex": "0x18f",
          "removed": false
        },
        {
          "address": "0x3744573093a9c0855584eca5631f8bf0e43d289d",
          "topics": [
            "0xc3d58168c5ae7397731d063d5bbf3d657854427343f4c083240f7aacaa2d0f62",
            "0x0000000000000000000000004143ef8556b9e2a23cc2b2f91f8eaed413a0b260",
            "0x0000000000000000000000000000000000000000000000000000000000000000",
            "0x000000000000000000000000bfe9277c0a337d7689c1321c39915debcda8f0c8"
          ],
          "data": "0x00000000000000000000000000000000000000000000000000000000000000010000000000000000000000000000000000000000000000000000000000000001",
          "blockHash": "0x62e85e070e283fca1d164ad8a49359e44254daf33606e23a7623d02cbbd376e9",
          "blockNumber": "0x134c3cf",
          "transactionHash": "0x1b69be42e7303867bdda7d4c50a84dd3344b192974e30856c0f0f12073bb7047",
          "transactionIndex": "0x91",
          "logIndex": "0x190",
          "removed": false
        },
        {
          "address": "0x3744573093a9c0855584eca5631f8bf0e43d289d",
          "topics": [
            "0xc3d58168c5ae7397731d063d5bbf3d657854427343f4c083240f7aacaa2d0f62",
            "0x0000000000000000000000004143ef8556b9e2a23cc2b2f91f8eaed413a0b260",
            "0x0000000000000000000000000000000000000000000000000000000000000000",
            "0x000000000000000000000000ce020e4bca3a181cacd771a4750e03f384779313"
          ],
          "data": "0x00000000000000000000000000000000000000000000000000000000000000010000000000000000000000000000000000000000000000000000000000000001",
          "blockHash": "0x62e85e070e283fca1d164ad8a49359e44254daf33606e23a7623d02cbbd376e9",
          "blockNumber": "0x134c3cf",
          "transactionHash": "0x1b69be42e7303867bdda7d4c50a84dd3344b192974e30856c0f0f12073bb7047",
          "transactionIndex": "0x91",
          "logIndex": "0x191",
          "removed": false
        },
        {
          "address": "0x3744573093a9c0855584eca5631f8bf0e43d289d",
          "topics": [
            "0xc3d58168c5ae7397731d063d5bbf3d657854427343f4c083240f7aacaa2d0f62",
            "0x0000000000000000000000004143ef8556b9e2a23cc2b2f91f8eaed413a0b260",
            "0x0000000000000000000000000000000000000000000000000000000000000000",
            "0x000000000000000000000000cf0b56dfefa3e0051a1772fc585b076a06487c53"
          ],
          "data": "0x00000000000000000000000000000000000000000000000000000000000000010000000000000000000000000000000000000000000000000000000000000001",
          "blockHash": "0x62e85e070e283fca1d164ad8a49359e44254daf33606e23a7623d02cbbd376e9",
          "blockNumber": "0x134c3cf",
          "transactionHash": "0x1b69be42e7303867bdda7d4c50a84dd3344b192974e30856c0f0f12073bb7047",
          "transactionIndex": "0x91",
          "logIndex": "0x192",
          "removed": false
        },
        {
          "address": "0x3744573093a9c0855584eca5631f8bf0e43d289d",
          "topics": [
            "0xc3d58168c5ae7397731d063d5bbf3d657854427343f4c083240f7aacaa2d0f62",
            "0x0000000000000000000000004143ef8556b9e2a23cc2b2f91f8eaed413a0b260",
            "0x0000000000000000000000000000000000000000000000000000000000000000",
            "0x000000000000000000000000d1efdd037566b0c75cebace9150d26ea0153faa9"
          ],
          "data": "0x00000000000000000000000000000000000000000000000000000000000000010000000000000000000000000000000000000000000000000000000000000001",
          "blockHash": "0x62e85e070e283fca1d164ad8a49359e44254daf33606e23a7623d02cbbd376e9",
          "blockNumber": "0x134c3cf",
          "transactionHash": "0x1b69be42e7303867bdda7d4c50a84dd3344b192974e30856c0f0f12073bb7047",
          "transactionIndex": "0x91",
          "logIndex": "0x193",
          "removed": false
        },
        {
          "address": "0x3744573093a9c0855584eca5631f8bf0e43d289d",
          "topics": [
            "0xc3d58168c5ae7397731d063d5bbf3d657854427343f4c083240f7aacaa2d0f62",
            "0x0000000000000000000000004143ef8556b9e2a23cc2b2f91f8eaed413a0b260",
            "0x0000000000000000000000000000000000000000000000000000000000000000",
            "0x000000000000000000000000d55da9119090a5ce1c7c99fc2e868b2e3bfed096"
          ],
          "data": "0x00000000000000000000000000000000000000000000000000000000000000010000000000000000000000000000000000000000000000000000000000000001",
          "blockHash": "0x62e85e070e283fca1d164ad8a49359e44254daf33606e23a7623d02cbbd376e9",
          "blockNumber": "0x134c3cf",
          "transactionHash": "0x1b69be42e7303867bdda7d4c50a84dd3344b192974e30856c0f0f12073bb7047",
          "transactionIndex": "0x91",
          "logIndex": "0x194",
          "removed": false
        },
        {
          "address": "0x3744573093a9c0855584eca5631f8bf0e43d289d",
          "topics": [
            "0xc3d58168c5ae7397731d063d5bbf3d657854427343f4c083240f7aacaa2d0f62",
            "0x0000000000000000000000004143ef8556b9e2a23cc2b2f91f8eaed413a0b260",
            "0x0000000000000000000000000000000000000000000000000000000000000000",
            "0x000000000000000000000000d9d9ac409f3641acb2bfbe5563aec5263ad06537"
          ],
          "data": "0x00000000000000000000000000000000000000000000000000000000000000010000000000000000000000000000000000000000000000000000000000000001",
          "blockHash": "0x62e85e070e283fca1d164ad8a49359e44254daf33606e23a7623d02cbbd376e9",
          "blockNumber": "0x134c3cf",
          "transactionHash": "0x1b69be42e7303867bdda7d4c50a84dd3344b192974e30856c0f0f12073bb7047",
          "transactionIndex": "0x91",
          "logIndex": "0x195",
          "removed": false
        },
        {
          "address": "0x3744573093a9c0855584eca5631f8bf0e43d289d",
          "topics": [
            "0xc3d58168c5ae7397731d063d5bbf3d657854427343f4c083240f7aacaa2d0f62",
            "0x0000000000000000000000004143ef8556b9e2a23cc2b2f91f8eaed413a0b260",
            "0x0000000000000000000000000000000000000000000000000000000000000000",
            "0x000000000000000000000000df4b06ee39d048c3fc47b685173053dd90a65319"
          ],
          "data": "0x00000000000000000000000000000000000000000000000000000000000000010000000000000000000000000000000000000000000000000000000000000001",
          "blockHash": "0x62e85e070e283fca1d164ad8a49359e44254daf33606e23a7623d02cbbd376e9",
          "blockNumber": "0x134c3cf",
          "transactionHash": "0x1b69be42e7303867bdda7d4c50a84dd3344b192974e30856c0f0f12073bb7047",
          "transactionIndex": "0x91",
          "logIndex": "0x196",
          "removed": false
        },
        {
          "address": "0x3744573093a9c0855584eca5631f8bf0e43d289d",
          "topics": [
            "0xc3d58168c5ae7397731d063d5bbf3d657854427343f4c083240f7aacaa2d0f62",
            "0x0000000000000000000000004143ef8556b9e2a23cc2b2f91f8eaed413a0b260",
            "0x0000000000000000000000000000000000000000000000000000000000000000",
            "0x000000000000000000000000e26541380a96db028bb95fe9cb923e299a000a5d"
          ],
          "data": "0x00000000000000000000000000000000000000000000000000000000000000010000000000000000000000000000000000000000000000000000000000000001",
          "blockHash": "0x62e85e070e283fca1d164ad8a49359e44254daf33606e23a7623d02cbbd376e9",
          "blockNumber": "0x134c3cf",
          "transactionHash": "0x1b69be42e7303867bdda7d4c50a84dd3344b192974e30856c0f0f12073bb7047",
          "transactionIndex": "0x91",
          "logIndex": "0x197",
          "removed": false
        },
        {
          "address": "0x3744573093a9c0855584eca5631f8bf0e43d289d",
          "topics": [
            "0xc3d58168c5ae7397731d063d5bbf3d657854427343f4c083240f7aacaa2d0f62",
            "0x0000000000000000000000004143ef8556b9e2a23cc2b2f91f8eaed413a0b260",
            "0x0000000000000000000000000000000000000000000000000000000000000000",
            "0x000000000000000000000000e519e5eb81f92bf19ecfc7e5d9c6418cd8c2e0b9"
          ],
          "data": "0x00000000000000000000000000000000000000000000000000000000000000010000000000000000000000000000000000000000000000000000000000000001",
          "blockHash": "0x62e85e070e283fca1d164ad8a49359e44254daf33606e23a7623d02cbbd376e9",
          "blockNumber": "0x134c3cf",
          "transactionHash": "0x1b69be42e7303867bdda7d4c50a84dd3344b192974e30856c0f0f12073bb7047",
          "transactionIndex": "0x91",
          "logIndex": "0x198",
          "removed": false
        },
        {
          "address": "0x3744573093a9c0855584eca5631f8bf0e43d289d",
          "topics": [
            "0xc3d58168c5ae7397731d063d5bbf3d657854427343f4c083240f7aacaa2d0f62",
            "0x0000000000000000000000004143ef8556b9e2a23cc2b2f91f8eaed413a0b260",
            "0x0000000000000000000000000000000000000000000000000000000000000000",
            "0x000000000000000000000000ea6ce1d62bc1ca179b573aab956fe8b30d8bc0ff"
          ],
          "data": "0x00000000000000000000000000000000000000000000000000000000000000010000000000000000000000000000000000000000000000000000000000000001",
          "blockHash": "0x62e85e070e283fca1d164ad8a49359e44254daf33606e23a7623d02cbbd376e9",
          "blockNumber": "0x134c3cf",
          "transactionHash": "0x1b69be42e7303867bdda7d4c50a84dd3344b192974e30856c0f0f12073bb7047",
          "transactionIndex": "0x91",
          "logIndex": "0x199",
          "removed": false
        }
      ],
      "logsBloom": "0x82000000330001000048000300001001000002480430009000205400110008c0001600004100000408001888000000040080000000402010000000400408220014040000040550880048040000000000000000004008807020000000700000000000004802000000900000000016080800022a20000080800001000104400020000409000000004022040000009040010540000424000010000080000010200240000004c02062000001000280000000000181804440040004000024000000800008280000000000000000000000000004000000400800002001020a04042a000800020080111004240002010100200008034071010100008002280588001200",
      "type": "0x0",
      "transactionHash": "0x1b69be42e7303867bdda7d4c50a84dd3344b192974e30856c0f0f12073bb7047",
      "transactionIndex": "0x91",
      "blockHash": "0x62e85e070e283fca1d164ad8a49359e44254daf33606e23a7623d02cbbd376e9",
      "blockNumber": "0x134c3cf",
      "gasUsed": "0x1b1354",
      "effectiveGasPrice": "0x18e35d8a9",
      "from": "0x4143ef8556b9e2a23cc2b2f91f8eaed413a0b260",
      "to": "0x3744573093a9c0855584eca5631f8bf0e43d289d",
      "contractAddress": null
    }
  ],
  "libraries": [],
  "pending": [],
  "returns": {},
  "timestamp": 1720121089,
  "chain": 1,
  "commit": "c92f0d1"
}